:020000020000FC
:040000000C94340028
:1000680008E00EBF0FEF0DBF0FE007B90CEF0AB99C
:100078000FE304B900E0A02E502E802ED1E0C0E09E
:1000880000917C00006400937C0000917A0007686E
:1000980000937A00A3D00ED010E0511609F42DD1A8
:1000A80053D169D1D1E0C0E0C9D0A5D086D137D02D
:1000B8000C944F00D1E0C0E018E000E008832196DE
:1000C8001A951030D1F70895042F000F000F000F74
:1000D800000F000F000F902B042F06950695702B2C
:1000E8000895062F0F70802B062F06950695069506
:1000F8000695000F000F902B089561E0D1E0C0E055
:1001080070E080E090E04881ECDFDEDF75B988B907
:100118009BB92196660F603099F7000008950AEFA1
:100128000F93EBDFEADFE9DFE8DFE7DFE6DFE5DFB4
:10013800E4DFE3DFE2DFE1DFE0DFDFDFDEDFDDDFBB
:10014800DCDFDBDFDADFD9DFD8DF0F910A9500309B
:1001580039F7089550917C005695569556955695C1
:10016800550F550F550F550F546050937C00089547
:1001780030917C003695369536953695330F330F8A
:10018800330F330F356030937C000895F1DF009111
:100198007C00006200937C0000917A000064009368
:1001A8007A0000917A0006FDFCCF00917900800E5C
:1001B800B00E0895CFDF00917C00006200937C00B0
:1001C80000917A00006400937A0000917A0006FD9D
:1001D800FCCF00917900800EB00E0895B1E0A8E040
:1001E80004E40D9305E40D9306E40D9307E40D93E1
:1001F80004E0402E0895B1E0A8E0942C0C910F7013
:100208001C911695169516951695D1E0C0E020E03C
:10021800021721F0219623950217E1F750E820E014
:10022800121721F0569523951217E1F70881052B2F
:10023800088311969A949A1409F70895B1E0A8E0F2
:10024800A40DBA1D1197DB2FCA2F2197042D0A95EB
:1002580018811C93119721970A950030C9F796DFEA
:1002680011E0F11631F0043620F410E0F12E0C9470
:10027800590110E0F11631F0063920F011E0F12EA5
:100288000C94590197DF13E0F11631F0043620F48D
:1002980012E0F12E0C94590112E0F11631F00639F2
:1002A80020F013E0F12E0C945901B1E0A8E09C90E5
:1002B80010E0F11641F011E0F11659F012E0F116D4
:1002C80071F00C94790108E8902A00E1901A0C94D6
:1002D8007D0107E7902200E1900E0C947D0107E76D
:1002E800902201E0900E0C947D0108E8902A01E02C
:1002F800901A07E790229C92089517E7812220E739
:1003080082228694869486948694682C17E78122A4
:1003180017E7B12227E0B222782C142DB1E0A8E02B
:100328000C910F70502F0C91007F000F000F000FE1
:10033800000F302F361519F4571509F463941196E8
:100348001A951A1569F70895D1E0C0E020E07216F1
:1003580021F0219623957216E1F730E820E0621625
:1003680021F0369523956216E1F70881032B08835F
:1003780011E0512E0895B1E0A8E02C91207F269538
:100388002695269526952615B9F4B1E0A8E01C9186
:100398001F70171589F44394062D0F70000F000F76
:1003A800000F000F172D1F70012BA40DAA1DB1E01F
:1003B800A8E00C9300E0502E0895B1E0A8E00C915D
:1003C800242D2A95DB2FCA2F21961881011711F4A5
:0E03D8000C94340021962A952030B9F7089530
:00000001FF
